:0300000002000AF1
:0300630002000395
:0500030012024880FE1E
:08006600AE82AF837C007D0037
:0E006E00C3EC9EED64808FF063F08095F0503F
:05007C00147A787B00FE
:050081001ABAFF011B8B
:0B008600EA4B70F70CBC00E00D80DDC1
:01009100224C
:0E009200AC82AD83AEF0FF7580FF900436E4C3
:0A00A00093F5A0750F10751027E40A
:0A00AA00F511F5128C828D838EF0A3
:0E00B400EFC007C006C005C004120307A882F3
:0A00C200A983AAF0FB750FE8751082
:0A00CC0003E4F511F5128882898320
:0E00D6008AF0EB12038AA882A983D004D00519
:0B00E400D006D007E82428F582E9349C
:0C00EF0004F583E493F580900002C00744
:0E00FB00C006C005C004120066D004D005D0B7
:0E01090006D0077580FF900435E493F5A075CD
:070117000FE8751003E4F589
:0A011E0011F5128C828D838EF0EF34
:0E012800C007C006C005C004120307A882A9C4
:0A01360083AAF0FB750F64E4F510D6
:0A014000F511F512888289838AF018
:0E014A00EB12038AA882A983D004D005D00648
:0A015800D007E82428F582E93404FA
:0E016200F583E493F580900002C007C006C04C
:0E01700005C004120066D004D005D006D007EA
:0C017E007580FF900434E493F5A0750F29
:07018A0064E4F510F511F526
:0C019100128C828D838EF0EFC007C00638
:0E019D00C005C004120307A882A983AAF0FBC4
:0701AB00750F0AE4F510F5E1
:0A01B20011F512888289838AF0EBB0
:0E01BC0012038AA882A983D004D005D006D0F1
:0A01CA0007E82428F582E93404F563
:0E01D40083E493F580900002C007C006C005CA
:0E01E200C004120066D004D005D006D0077508
:0C01F00080FF900433E493F5A0750F0A23
:0601FC00E4F510F511F519
:0C020200128C828D838EF0EF120307AC8B
:0A020E0082AD83EC2428F582ED3464
:0B02180004F583E493F58090000202DF
:02022300006673
:0E022500E580F4F580E590F4F590E5A0F4F5A1
:0A023300A0E5B0F4F5B07E0A7F00EC
:05023D001EBEFF011FC1
:06024200EE4F70F780DDB5
:0D0248007580FF7590FF75A0FF75B0FF7504
:030255000A257502
:030258000B02ABEB
:0A025B000AAC0B7D808B828C838D32
:0D026500F074381203EFA374151203EF7547
:0502720008647509009D
:0E0277008B828C838DF0120408F8A312040809
:0E028500FA3395E0FE88828A838EF0C005C0B1
:0D02930004C003120092D003D004D0051562
:0702A0000874FFB508021508
:0102A700094D
:0A02A800E508450970C98B828C83BC
:0E02B2008DF074D21203EFA374041203EF75E3
:0502C00008647509004F
:0E02C5008B828C838DF0120408F9A3120408BA
:0E02D300F83395E0FA898288838AF0C005C06E
:0D02E10004C003120092D003D004D0051514
:0702EE000874FFB5080215BA
:0102F50009FF
:0702F600E508450970C98508
:0602FD000A82850B83124A
:020303000008F0
:0203050080FE78
:0B042800C0F9A4B0999282F880907F88
:05043300FEFDFBF7F0E7
:06030700F9E50F45104569
:08030D0011451260777800C36E
:0A03150008E51220E73BE50F25E0A4
:06031F00F50FE51033F5B7
:0503250010E51133F5A5
:05032A0011E51233F59E
:08032F0012E582950FE58395AC
:0703370010E5F09511E995B6
:08033E001250D4C3E51213F5BF
:0503460012E51113F5A2
:05034B0011E51013F59F
:0503500010E50F13F59C
:010355000F98
:0A035600E582950FFCE5839510FD8C
:0A036000E5F09511FEE99512400743
:07036A00F98EF08D838C82F7
:07037100C3E51213F512E5CC
:050378001113F511E571
:05037D001013F510E56E
:070382000F13F50FD8CEE9BF
:010389002251
:08038A00FB7A20E4FCFDFEFFFC
:0E039200E5822582F582E58333F583E5F033BD
:0B03A000F5F0EB33FB4017DAE9804278
:0E03AB00E5822582F582E58333F583E5F033A4
:0503B900F5F0EB33FB41
:0E03BE00EC33FCED33FDEE33FEEF33FFEC9538
:0603CC000FED9510EE9507
:0803D20011EF95124013EC95A8
:0803DA000FFCED9510FDEE95FE
:0903E20011FEEF9512FF438201A8
:0203EB00DABE78
:0203ED00EB2201
:06003900E478FFF6D8FD9B
:080017007900E94400601B7A46
:05001F00009004387898
:030024000075A0C4
:0A00270000E493F2A308B8000205FC
:08003100A0D9F4DAF275A0FF7A
:0E03EF0020F71030F6118883A88220F507F65B
:0503FD00A883758300D8
:0104020022D7
:03040300F280F78D
:02040600F022E2
:08003F007800E84400600A7932
:030047000075A0A1
:06004A0000E4F309D8FCFC
:080050007800E84400600C791F
:0B00580000900000E4F0A3D8FCD9FAEF
:02000800E4739F
:03000A00758112EB
:0A000D00120424E5826003020003E0
:0E04080020F71430F6148883A88220F507E64A
:06041600A883758300229B
:03041C00E280F784
:03041F00E4932241
:02042200E022D6
:0404240075820022BB
:00000001FF
