:0400000002002332A5
:03000B000201C12E
:0100130032BA
:03001B000201F7E8
:06007C00750A1D750B0062
:0300820002001E5B
:05001E0012017480FED8
:08008500AE82AF837C007D0018
:0E008D00C3EC9EED64808FF063F08095F05020
:05009B00147A787B00DF
:0500A0001ABAFF011B6C
:0B00A500EA4B70F70CBC00E00D80DDA2
:0100B000222D
:0E00B100AE82AF837580FF900604E493F5A045
:0A00BF007514E87515038E828F8317
:0B00C900C007C00612050E7514647518
:0C00D4001500120544AC82AD83D006D0AC
:0A00E00007EC24F7F582ED3405F576
:0D00EA0083E493F580900002C007C0061269
:0E00F7000085D006D0077580FF900603E493C5
:0A010500F5A07514647515008E82D4
:0C010F008F83C007C00612050E75140A8D
:0C011B00751500120544AC82AD83D006BF
:0A012700D007EC24F7F582ED340553
:0E013100F583E493F580900002C007C006122B
:0E013F000085D006D0077580FF900602E4937D
:0A014D00F5A075140A7515008E82E6
:0C0157008F8312050EAE82AF83EE24F7FA
:0C016300F582EF3405F583E493F58090FD
:05016F00000202008502
:0E01740075A88A758911AFA05307EF8FA0E41C
:05018200F50CF50DF580
:0A0187000EF50F758D3C758BB0D29C
:010191008EDF
:07019200850C82850D83122C
:0601990000B1050CE4B505
:04019F000C02050D3C
:0801A300741055A0FFB4010027
:0C01AB00E433FF6007741045A0FF8006DD
:0601B700AEA074EF5EFF34
:0401BD008FA080D1BE
:0E01C100C0E0C007C006C0D075D00074105555
:0501CF00A0FFB40100D7
:0C01D400E433FF6007741045A0FF8006B4
:0601E000AEA074EF5EFF0B
:0A01E6008FA085088C85098AD0D00F
:0701F000D006D007D0E03279
:0C01F700C020C0E0C0F0C082C083C00780
:0E020300C006C005C004C003C002C001C00098
:0E021100C0D075D000758D3C758BB074322551
:05021F000EF50EE435B0
:040224000FF50FE5DE
:050228000C250CFEE5B1
:0A022D000D33FFEE2498F582EF3444
:0B02370005F583E493FEA3E493FFAC05
:0A0242000EAD0FC3EC9EED9F5003BC
:03024C000202F2B9
:06024F00E4F50EF50FE5D9
:060255000C24DAF582E53D
:0A025B000D3405F583E493FF7002F3
:02026500C28C49
:0E026700EF2FFD90058093CDA393FEE4FCFBEA
:0A027500C39DF510E49EF51174011D
:09027F009CF512E49BF513E4F573
:0502880014751501F5DD
:04028D0016F51785C6
:0602910010828511838537
:0702970012F0E513C007128D
:08029E0004BCA8828808E4F505
:0502A60014751501F5BF
:0402AB0016F51785A8
:0602AF0010828511838519
:0502B50012F0E5131238
:0C02BA00046DAB82AC83ADF0FED0078B6E
:0502C6000985088C858C
:0702CB00098AEF6002D28CEA
:0702D200050CE4B50C020568
:0102D9000D17
:0602DA00C3E50C950AE5E6
:0A02E0000D6480850BF063F080953B
:0802EA00F04005E4F50CF50DF0
:0E02F200D0D0D000D001D002D003D004D0056F
:0D030000D006D007D083D082D0F0D0E0D05E
:02030D0020329C
:0E0580000000BC035403F702CC027E023802D6
:0A058E00FA01DE01AA017B01000062
:0E059800F401F401F401F401F401F401F401A2
:0E05A600F401F401F401F401F401F401F40194
:0E05B400F401F401F401F401F401F401F40186
:0E05C200F401F401F401F401F401F401F40178
:0A05D000F401F401F401F401F40158
:0E05DA000101020104030001010201050400F9
:0E05E8000101080604030200070706040504CB
:0105F6000004
:0B05F700C0F9A4B0999282F880907FB8
:050602000605030700DE
:06030F00F9E51445154557
:0803150016451760777800C35C
:0A031D0008E51720E73BE51425E092
:06032700F514E51533F5A5
:05032D0015E51633F593
:0503320016E51733F58C
:0803370017E5829514E583959A
:07033F0015E5F09516E995A4
:080346001750D4C3E51713F5AD
:05034E0017E51613F590
:0503530016E51513F58D
:0503580015E51413F58A
:01035D00148B
:0A035E00E5829514FCE5839515FD7A
:0A036800E5F09516FEE99517400731
:07037200F98EF08D838C82EF
:07037900C3E51713F517E5BA
:050380001613F516E55F
:050385001513F515E55C
:07038A001413F514D8CEE9AD
:010391002249
:08039200FB7A20E4FCFDFEFFF4
:0E039A00E5822582F582E58333F583E5F033B5
:0B03A800F5F0EB33FB4017DAE9804270
:0E03B300E5822582F582E58333F583E5F0339C
:0503C100F5F0EB33FB39
:0E03C600EC33FCED33FDEE33FEEF33FFEC9530
:0603D40014ED9515EE95F5
:0803DA0016EF95174013EC9596
:0803E20014FCED9515FDEE95EC
:0903EA0016FEEF9517FF43820196
:0203F300DABE70
:0203F500EB22F9
:06005200E478FFF6D8FD82
:080030007900E94400601B7A2D
:050038000090060778AE
:03003D000075A0AB
:0A00400000E493F2A308B8000205E3
:08004A00A0D9F4DAF275A0FF61
:0803F700E514451560467A018A
:0703FF00E51425E0F514E50B
:0904060015334012F515E582954D
:0A040F0014E583951540030A80E60A
:03041900C3E51523
:07041C0013F515E51413F5BB
:0104230014C4
:0A042400C3E5829514F5F0E5839519
:08042E00154005F58385F082FD
:07043600C3E51513F515E500
:06043D001413F514DAE1CE
:010443002296
:080058007800E84400600A7919
:030060000075A088
:0600630000E4F309D8FCE3
:080069007800E84400600C7906
:0B00710000900000E4F0A3D8FCD9FAD6
:050444007A10E4FBFC4E
:0E044900E58225E0F582E58333F583EB33FB96
:0A045700EC33FCEB9514F5F0EC9586
:09046100154006FCABF0438201DA
:03046A00DADD22B6
:0E046D00F9C2D530E715D2D5E4C39582F582E9
:0D047B00E49583F583E495F0F5F0E499F93C
:0A048800E51730E715E4C39514F5FD
:0504920014E49515F5CE
:0504970015E49516F5C7
:05049C0016E49517F5C0
:0104A1001743
:0E04A200E912030F30D512E4C39582F582E40F
:0B04B0009583F583E495F0F5F0E499E6
:0104BB00221E
:0E04BC00FBC2D530E715D2D5E4C39582F58298
:0D04CA00E49583F583E495F0F5F0E49BFBE9
:0A04D700E51730E717B2D5E4C3952E
:0504E10014F514E49580
:0504E60015F515E49579
:0504EB0016F516E49572
:0304F00017F517E6
:0E04F300EB12039230D513FBE4C39582F58221
:0C050100E49583F583E495F0F5F0E49BAD
:01050D0022CB
:03002300758120C4
:0A00260012057CE582600302001E53
:0E050E00C2D5E58330E70DD2D5E4C39582F562
:06051C0082E49583F583E3
:0A052200E51530E70BE4C39514F56E
:05052C0014E49515F533
:0105310015B4
:0E0532001203F730D50BE4C39582F582E495F1
:0305400083F583BD
:010543002295
:0E054400C2D5E58330E70DD2D5E4C39582F52C
:0605520082E49583F583AD
:0A055800E51530E70DB2D5E4C395B8
:0505620014F514E495FE
:0305670015F51572
:0E056A0012044430D50BE4C39582F582E4956B
:0305780083F58385
:01057B00225D
:04057C007582002262
:00000001FF
