:03000000020008F3
:0300610002000397
:0500030012009080FED8
:08006400AE82AF837C007D0039
:0E006C00C3EC9EED64808FF063F08095F05041
:05007A00147A787B0000
:05007F001ABAFF011B8D
:0B008400EA4B70F70CBC00E00D80DDC3
:01008F00224E
:0E0090007E007F007C007D0075A0FE43A00175
:0A009E00EE2440F582EF3401F583F3
:0C00A800E493FBF4F590EC240FF582EDDE
:0800B4003401F583E493F580AB
:0A00BC00E5A030E0FB0EBE00010FCE
:0500C6000CBC00010D5F
:0A00CB00EE2440F582EF3401F583C6
:0A00D500E493FBBB11047E007F00E2
:0E00DF00C374099CE464808DF063F08095F09A
:0600ED0050047C007D00C0
:0E00F3009000C8C007C006C005C0041200641B
:0A010100D004D005D006D00780938B
:0B010F00C0F9A4B0999282F880907FA4
:06011A00FEFDFBF7EFDF24
:080120000102040810204080D8
:0E012800FF90909000FF0101FF00182442811B
:0601360000FF040A1100A5
:04013C0088442211C0
:0E014000000102040810204080818284889013
:0E014E00A0C0C1C2C4C8D0E0E1E2E4E8F0F114
:0A015C00F2F4F8F9FAFCFDFEFF11C1
:06003700E478FFF6D8FD9D
:080015007900E94400601B7A48
:05001D0000900166786F
:030022000075A0C6
:0A00250000E493F2A308B8000205FE
:08002F00A0D9F4DAF275A0FF7C
:08003D007800E84400600A7934
:030045000075A0A3
:0600480000E4F309D8FCFE
:08004E007800E84400600C7921
:0B00560000900000E4F0A3D8FCD9FAF1
:03000800758107F8
:0A000B0012010BE5826003020003FE
:04010B0075820022D7
:00000001FF
