:0400000002001332B5
:03000B0002059F4C
:06006C00E4F513F514F5A4
:0300720015F5166B
:0300750002000E78
:05000E0012058180FED7
:08007800AE82AF837C007D0025
:0E008000C3EC9EED64808FF063F08095F0502D
:05008E00147A787B00EC
:050093001ABAFF011B79
:0B009800EA4B70F70CBC00E00D80DDAF
:0100A300223A
:0800A40085820885830985F0BF
:0400AC000AF50B75D1
:0600B0000CFF750D7F75C9
:0600B6000EFF75175875DE
:0600BC001802E4F519F53D
:0500C2001A850882858B
:0600C7000983850AF0E543
:0C00CD000B120643A882A983AAF0FBC313
:0E00D900E89470E99417EA9400EB9400500349
:0300E7000201B063
:0700EA0075170075189775EA
:0600F1001949751A018592
:0600F700088285098385E3
:0500FD000AF0E50B1202
:070102000643858217858387
:050109001885F019F556
:0C010E001A90424075F00FE41206A8851C
:07011A00820F85831085F0C0
:0401210011F512754D
:06012500174075187E75FD
:06012B001905751A00859C
:06013100088285098385A8
:050137000AF0E50B12C7
:0C013C0005C0A882A983AAF0FB7517700B
:07014800751817E4F519F525
:0C014F001A888289838AF0EB120643852F
:07015B00821785831885F06F
:0A01620019F51A902710E4F5F012C9
:0C016C0006A8A882A983AAF0FBE8250FD2
:06017800F508E93510F561
:05017E0009EA3511F54E
:050183000AEB3512F546
:050188000B7517107556
:06018D001827E4F519F546
:050193001A85088285B9
:060198000983850AF0E571
:06019E000B1206438582EE
:0601A4000885830985F0C7
:0401AA000AF50B0245
:0201AE00045AF1
:0701B00075173CE4F518F59A
:0401B70019F51A8597
:0601BB000882850983851E
:0501C1000AF0E50B123D
:0E01C6000643A882A983AAF0FBC3E89470E95F
:0D01D4009417EA9400EB940050030202F42B
:0701E10075170075189775F2
:0601E8001949751A01859A
:0601EE00088285098385EB
:0501F4000AF0E50B120A
:0701F9000643858217858390
:050200001885F019F55E
:0C0205001A90424075F00FE41206A8A801
:0A02110082A983AAF0FB751740755F
:06021B00187E751905753F
:060221001A008508828529
:060227000983850AF0E5E1
:0C022D000BC003C002C001C0001205C0DD
:0B023900AC82AD83AEF0FF751770754E
:060244001817E4F519F59E
:0C024A001A8C828D838EF0EF1206438523
:07025600821785831885F073
:0A025D0019F51A902710E4F5F012CD
:0E02670006A8AC82AD83AEF0FFD000D001D06F
:0E02750002D003EC28F8ED39F9EE3AFAEF3B2F
:09028300FB751770751817E4F5FE
:04028C0019F51A85C1
:0602900008828509838548
:0A0296000AF0E50BC003C002C0012E
:0E02A000C0001205C0AC82AD83AEF0FFD000EE
:0C02AE00D001D002D003EC28F508ED3997
:0902BA00F509EE3AF50AEF3BF5F7
:0502C3000B7517E87542
:0602C8001803E4F519F52E
:0502CE001A850882857D
:0602D3000983850AF0E535
:0602D9000B1206438582B2
:0602DF000885830985F08B
:0402E5000AF50B7596
:0602E9000DFF750C7F758E
:0502EF000E7F02045A1D
:0A02F400C3E5089460E50994EAE50B
:0A02FE000A9400E50B94005003027F
:0203080003A44C
:08030A00751770751817E4F572
:0403120019F51A853A
:06031600088285098385C1
:05031C000AF0E50B12E0
:070321000643858217858366
:050328001885F019F535
:0C032D001A902710E4F5F01206A8AC822C
:0A033900AD83AEF0FF751770751864
:0703430017E4F519F51A8516
:06034A000882850983858D
:0A0350000AF0E50BC007C006C00567
:0E035A00C0041205C0A882A983AAF0FBD0043B
:0C036800D005D006D007E82CF508E93DD0
:09037400F509EA3EF50AEB3FF53C
:06037D000B751764E4F5A6
:0403830018F519F55B
:050387001A85088285C3
:06038C000983850AF0E57B
:060392000B1206438582F8
:060398000885830985F0D1
:04039E000AF50B024F
:0203A200045AFB
:0A03A400C3E5089470E5099417E51D
:0A03AE000A9400E50B9400500302CE
:0203B800045AE5
:0803BA00751770751817E4F5C2
:0403C20019F51A858A
:0603C60008828509838511
:0503CC000AF0E50B1230
:0703D10006438582178583B6
:0503D8001885F019F585
:0C03DD001A902710E4F5F01206A8AC827C
:0A03E900AD83AEF0FF7517707518B4
:0703F30017E4F519F51A8566
:0603FA00088285098385DD
:0A0400000AF0E50BC007C006C005B6
:0E040A00C0041205C0A882A983AAF0FBD0048A
:0C041800D005D006D007E82CF508E93D1F
:09042400F509EA3EF50AEB3FF58B
:06042D000B75170AE4F54F
:0404330018F519F5AA
:050437001A8508828512
:06043C000983850AF0E5CA
:060442000B120643858247
:060448000885830985F020
:04044E000AF50B752B
:060452000DFF750C7F7523
:020458000E7F15
:0C045A007580FF900728E493F5A075174B
:08046600E8751803E4F519F52F
:05046E001A85088285DB
:060473000983850AF0E593
:0A0479000B120643AC82AD83EC24A5
:0A0483001AF582ED3407F583E493C7
:0C048D00FFE50E5FF58090000312007880
:0C0499007580FF900727E493F5A075170D
:0804A500E8751803E4F519F5F0
:0504AD001A850882859C
:0604B2000983850AF0E554
:0C04B8000B1205C0AC82AD83AEF0FF75E6
:0604C4001764E4F518F5D1
:0A04CA0019F51A8C828D838EF0EF75
:0C04D400120643AC82AD83EC241AF582C2
:0A04E000ED3407F583E493FFE50D0A
:0D04EA005FF5809000031200787580FF9090
:0B04F7000726E493F5A0751764E4F5F8
:0405020018F519F5DA
:050506001A8508828542
:06050B000983850AF0E5FA
:0C0511000B1205C0AC82AD83AEF0FF758C
:06051D00170AE4F518F5D1
:0A05230019F51A8C828D838EF0EF1B
:0C052D00120643AC82AD83EC241AF58268
:0A053900ED3407F583E493FFE50CB1
:0D0543005FF5809000031200787580FF9036
:0B0550000725E493F5A075170AE4F5F9
:04055B0018F519F581
:05055F001A85088285E9
:060564000983850AF0E5A1
:0A056A000B1205C0AC82AD83EC2437
:0A0574001AF582ED3407F583E493D5
:03057E00F58022E3
:0E05810075A88A758911758CD8758AF0D28C90
:07058F0085138285148385AA
:0505960015F0E516124E
:04059B0000A480F048
:0C059F00C0E0C0D0758CD8758AF0051340
:0705AB00E4B5130C0514B5C3
:0505B20014070515B55A
:0405B700150205160E
:0505BB00D0D0D0E032B9
:0B071A00C0F9A4B0999282F880907F93
:05072500FEFDFBF7F0F2
:0605C000F9E5174518459E
:0805C60019451A60777800C3A3
:0A05CE0008E51A20E73BE51725E0D9
:0605D800F517E51833F5EC
:0505DE0018E51933F5DA
:0505E30019E51A33F5D3
:0805E8001AE5829517E58395E1
:0705F00018E5F09519E995EB
:0805F7001A50D4C3E51A13F5F4
:0505FF001AE51913F5D7
:0506040019E51813F5D3
:0506090018E51713F5D0
:01060E0017D4
:0A060F00E5829517FCE5839518FDC0
:0A061900E5F09519FEE9951A400777
:07062300F98EF08D838C823B
:07062A00C3E51A13F51AE500
:050631001913F519E5A5
:050636001813F518E5A2
:07063B001713F517D8CEE9F3
:010642002295
:08064300FB7A20E4FCFDFEFF40
:0E064B00E5822582F582E58333F583E5F03301
:0B065900F5F0EB33FB4017DAE98042BC
:0E066400E5822582F582E58333F583E5F033E8
:05067200F5F0EB33FB85
:0E067700EC33FCED33FDEE33FEEF33FFEC957C
:0606850017ED9518EE953B
:08068B0019EF951A4013EC95DC
:0806930017FCED9518FDEE9532
:09069B0019FEEF951AFF438201DC
:0206A400DABEBC
:0206A600EB2245
:06004200E478FFF6D8FD92
:080020007900E94400601B7A3D
:050028000090072A789A
:03002D000075A0BB
:0A00300000E493F2A308B8000205F3
:08003A00A0D9F4DAF275A0FF71
:0C06A800AAF0FBE5828517F0A4FCADF081
:0C06B400E5838517F0A42DFDE435F0FE71
:0C06C000E5828518F0A42DFDE5F03EFE5B
:0C06CC00E433FFEA8517F0A42EFEE5F0F1
:0C06D8003FFFE5838518F0A42EFEE5F03E
:0C06E4003FFFE5828519F0A42EFEE5F032
:0B06F0003FFFEB8517F0A42FFFEA8509
:0A06FB0018F0A42FFFE5838519F025
:0C070500A42FFFE582851AF0A42F8EF0CF
:050711008D838C8222A3
:080048007800E84400600A7929
:030050000075A098
:0600530000E4F309D8FCF3
:080059007800E84400600C7916
:0B00610000900000E4F0A3D8FCD9FAE6
:0300130075811ADA
:0A001600120716E582600302000ED7
:0407160075820022C6
:00000001FF
